{"abi":[{"type":"constructor","inputs":[],"stateMutability":"nonpayable"},{"type":"function","name":"addressToResearcherId","inputs":[{"name":"","type":"address","internalType":"address"}],"outputs":[{"name":"","type":"uint256","internalType":"uint256"}],"stateMutability":"view"},{"type":"function","name":"approve","inputs":[{"name":"to","type":"address","internalType":"address"},{"name":"tokenId","type":"uint256","internalType":"uint256"}],"outputs":[],"stateMutability":"nonpayable"},{"type":"function","name":"balanceOf","inputs":[{"name":"owner","type":"address","internalType":"address"}],"outputs":[{"name":"","type":"uint256","internalType":"uint256"}],"stateMutability":"view"},{"type":"function","name":"getApproved","inputs":[{"name":"tokenId","type":"uint256","internalType":"uint256"}],"outputs":[{"name":"","type":"address","internalType":"address"}],"stateMutability":"view"},{"type":"function","name":"getProfile","inputs":[{"name":"researcherId","type":"uint256","internalType":"uint256"}],"outputs":[{"name":"","type":"tuple","internalType":"struct ResearcherNFT.ResearcherProfile","components":[{"name":"name","type":"string","internalType":"string"},{"name":"researchInterests","type":"string[]","internalType":"string[]"},{"name":"papersRead","type":"uint256","internalType":"uint256"},{"name":"sessionsCompleted","type":"uint256","internalType":"uint256"},{"name":"reputation","type":"uint256","internalType":"uint256"},{"name":"metadataURI","type":"string","internalType":"string"},{"name":"registeredAt","type":"uint256","internalType":"uint256"}]}],"stateMutability":"view"},{"type":"function","name":"getResearcherId","inputs":[{"name":"owner","type":"address","internalType":"address"}],"outputs":[{"name":"","type":"uint256","internalType":"uint256"}],"stateMutability":"view"},{"type":"function","name":"increaseReputation","inputs":[{"name":"researcherId","type":"uint256","internalType":"uint256"},{"name":"delta","type":"uint256","internalType":"uint256"}],"outputs":[],"stateMutability":"nonpayable"},{"type":"function","name":"incrementPapersRead","inputs":[{"name":"researcherId","type":"uint256","internalType":"uint256"}],"outputs":[],"stateMutability":"nonpayable"},{"type":"function","name":"incrementSessions","inputs":[{"name":"researcherId","type":"uint256","internalType":"uint256"}],"outputs":[],"stateMutability":"nonpayable"},{"type":"function","name":"isApprovedForAll","inputs":[{"name":"owner","type":"address","internalType":"address"},{"name":"operator","type":"address","internalType":"address"}],"outputs":[{"name":"","type":"bool","internalType":"bool"}],"stateMutability":"view"},{"type":"function","name":"name","inputs":[],"outputs":[{"name":"","type":"string","internalType":"string"}],"stateMutability":"view"},{"type":"function","name":"owner","inputs":[],"outputs":[{"name":"","type":"address","internalType":"address"}],"stateMutability":"view"},{"type":"function","name":"ownerOf","inputs":[{"name":"tokenId","type":"uint256","internalType":"uint256"}],"outputs":[{"name":"","type":"address","internalType":"address"}],"stateMutability":"view"},{"type":"function","name":"profiles","inputs":[{"name":"","type":"uint256","internalType":"uint256"}],"outputs":[{"name":"name","type":"string","internalType":"string"},{"name":"papersRead","type":"uint256","internalType":"uint256"},{"name":"sessionsCompleted","type":"uint256","internalType":"uint256"},{"name":"reputation","type":"uint256","internalType":"uint256"},{"name":"metadataURI","type":"string","internalType":"string"},{"name":"registeredAt","type":"uint256","internalType":"uint256"}],"stateMutability":"view"},{"type":"function","name":"registerResearcher","inputs":[{"name":"name","type":"string","internalType":"string"},{"name":"researchInterests","type":"string[]","internalType":"string[]"},{"name":"metadataURI","type":"string","internalType":"string"}],"outputs":[{"name":"researcherId","type":"uint256","internalType":"uint256"}],"stateMutability":"nonpayable"},{"type":"function","name":"renounceOwnership","inputs":[],"outputs":[],"stateMutability":"nonpayable"},{"type":"function","name":"safeTransferFrom","inputs":[{"name":"from","type":"address","internalType":"address"},{"name":"to","type":"address","internalType":"address"},{"name":"tokenId","type":"uint256","internalType":"uint256"}],"outputs":[],"stateMutability":"nonpayable"},{"type":"function","name":"safeTransferFrom","inputs":[{"name":"from","type":"address","internalType":"address"},{"name":"to","type":"address","internalType":"address"},{"name":"tokenId","type":"uint256","internalType":"uint256"},{"name":"data","type":"bytes","internalType":"bytes"}],"outputs":[],"stateMutability":"nonpayable"},{"type":"function","name":"setApprovalForAll","inputs":[{"name":"operator","type":"address","internalType":"address"},{"name":"approved","type":"bool","internalType":"bool"}],"outputs":[],"stateMutability":"nonpayable"},{"type":"function","name":"supportsInterface","inputs":[{"name":"interfaceId","type":"bytes4","internalType":"bytes4"}],"outputs":[{"name":"","type":"bool","internalType":"bool"}],"stateMutability":"view"},{"type":"function","name":"symbol","inputs":[],"outputs":[{"name":"","type":"string","internalType":"string"}],"stateMutability":"view"},{"type":"function","name":"tokenURI","inputs":[{"name":"tokenId","type":"uint256","internalType":"uint256"}],"outputs":[{"name":"","type":"string","internalType":"string"}],"stateMutability":"view"},{"type":"function","name":"transferFrom","inputs":[{"name":"from","type":"address","internalType":"address"},{"name":"to","type":"address","internalType":"address"},{"name":"tokenId","type":"uint256","internalType":"uint256"}],"outputs":[],"stateMutability":"nonpayable"},{"type":"function","name":"transferOwnership","inputs":[{"name":"newOwner","type":"address","internalType":"address"}],"outputs":[],"stateMutability":"nonpayable"},{"type":"function","name":"updateResearchInterests","inputs":[{"name":"researcherId","type":"uint256","internalType":"uint256"},{"name":"newInterests","type":"string[]","internalType":"string[]"}],"outputs":[],"stateMutability":"nonpayable"},{"type":"event","name":"Approval","inputs":[{"name":"owner","type":"address","indexed":true,"internalType":"address"},{"name":"approved","type":"address","indexed":true,"internalType":"address"},{"name":"tokenId","type":"uint256","indexed":true,"internalType":"uint256"}],"anonymous":false},{"type":"event","name":"ApprovalForAll","inputs":[{"name":"owner","type":"address","indexed":true,"internalType":"address"},{"name":"operator","type":"address","indexed":true,"internalType":"address"},{"name":"approved","type":"bool","indexed":false,"internalType":"bool"}],"anonymous":false},{"type":"event","name":"BatchMetadataUpdate","inputs":[{"name":"_fromTokenId","type":"uint256","indexed":false,"internalType":"uint256"},{"name":"_toTokenId","type":"uint256","indexed":false,"internalType":"uint256"}],"anonymous":false},{"type":"event","name":"MetadataUpdate","inputs":[{"name":"_tokenId","type":"uint256","indexed":false,"internalType":"uint256"}],"anonymous":false},{"type":"event","name":"OwnershipTransferred","inputs":[{"name":"previousOwner","type":"address","indexed":true,"internalType":"address"},{"name":"newOwner","type":"address","indexed":true,"internalType":"address"}],"anonymous":false},{"type":"event","name":"ProfileUpdated","inputs":[{"name":"id","type":"uint256","indexed":true,"internalType":"uint256"}],"anonymous":false},{"type":"event","name":"ReputationIncreased","inputs":[{"name":"id","type":"uint256","indexed":true,"internalType":"uint256"},{"name":"delta","type":"uint256","indexed":false,"internalType":"uint256"}],"anonymous":false},{"type":"event","name":"ResearcherRegistered","inputs":[{"name":"id","type":"uint256","indexed":true,"internalType":"uint256"},{"name":"owner","type":"address","indexed":true,"internalType":"address"},{"name":"name","type":"string","indexed":false,"internalType":"string"}],"anonymous":false},{"type":"event","name":"Transfer","inputs":[{"name":"from","type":"address","indexed":true,"internalType":"address"},{"name":"to","type":"address","indexed":true,"internalType":"address"},{"name":"tokenId","type":"uint256","indexed":true,"internalType":"uint256"}],"anonymous":false},{"type":"error","name":"ERC721IncorrectOwner","inputs":[{"name":"sender","type":"address","internalType":"address"},{"name":"tokenId","type":"uint256","internalType":"uint256"},{"name":"owner","type":"address","internalType":"address"}]},{"type":"error","name":"ERC721InsufficientApproval","inputs":[{"name":"operator","type":"address","internalType":"address"},{"name":"tokenId","type":"uint256","internalType":"uint256"}]},{"type":"error","name":"ERC721InvalidApprover","inputs":[{"name":"approver","type":"address","internalType":"address"}]},{"type":"error","name":"ERC721InvalidOperator","inputs":[{"name":"operator","type":"address","internalType":"address"}]},{"type":"error","name":"ERC721InvalidOwner","inputs":[{"name":"owner","type":"address","internalType":"address"}]},{"type":"error","name":"ERC721InvalidReceiver","inputs":[{"name":"receiver","type":"address","internalType":"address"}]},{"type":"error","name":"ERC721InvalidSender","inputs":[{"name":"sender","type":"address","internalType":"address"}]},{"type":"error","name":"ERC721NonexistentToken","inputs":[{"name":"tokenId","type":"uint256","internalType":"uint256"}]},{"type":"error","name":"OwnableInvalidOwner","inputs":[{"name":"owner","type":"address","internalType":"address"}]},{"type":"error","name":"OwnableUnauthorizedAccount","inputs":[{"name":"account","type":"address","internalType":"address"}]}],"bytecode":{"object":"0x60803462000382576001600160401b03906040818101838111838210176200036e578152601382526020917f4d656d6f436861696e526573656172636865720000000000000000000000000083820152815193828501858110828211176200036e578352600385526226a1a960e91b8486015281518181116200036e575f948554916001948584811c9416801562000363575b838510146200034f578190601f94858111620002fc575b508390858311600114620002995789926200028d575b50505f19600383901b1c191690851b1786555b8651928311620002795783548481811c911680156200026e575b828210146200025a5782811162000212575b5080918311600114620001ac575084958293949592620001a0575b50505f19600383901b1c191690821b1790555b3315620001885760078054336001600160a01b03198216811790925591519290916001600160a01b0316907f8be0079c531659141344cd1fd0a4f28419497f9722a3daafe3b4186f6b6457e09080a3611d309081620003878239f35b51631e4fbdf760e01b81526004810191909152602490fd5b015190505f8062000119565b90601f198316968487528287209287905b898210620001fa575050838596979810620001e1575b505050811b0190556200012c565b01515f1960f88460031b161c191690555f8080620001d3565b808785968294968601518155019501930190620001bd565b8487528187208380860160051c82019284871062000250575b0160051c019085905b82811062000244575050620000fe565b88815501859062000234565b925081926200022b565b634e487b7160e01b87526022600452602487fd5b90607f1690620000ec565b634e487b7160e01b86526041600452602486fd5b015190505f80620000bf565b898052848a208894509190601f1984168b5b87828210620002e55750508411620002cc575b505050811b018655620000d2565b01515f1960f88460031b161c191690555f8080620002be565b8385015186558b97909501949384019301620002ab565b9091508880528389208580850160051c82019286861062000345575b918991869594930160051c01915b82811062000336575050620000a9565b8b815585945089910162000326565b9250819262000318565b634e487b7160e01b88526022600452602488fd5b93607f169362000092565b634e487b7160e01b5f52604160045260245ffd5b5f80fdfe6080806040526004361015610012575f80fd5b5f3560e01c90816301ffc9a7146115785750806306fdde03146114d8578063081812fc1461149c578063095ea7b3146113bb57806323b872dd146113a45780633c00822a14610b4357806342842e0e14610b165780636352211e14610ae65780636998f0d8146109fd57806370a0823114610a90578063715018a614610a355780637611e4c9146109fd5780638da5cb5b146109d557806395d89b41146108f9578063a22cb46514610858578063b88d4fde146107eb578063c36fe3d61461075f578063c87b56dd14610705578063da9cf0de146106af578063e985e9c51461065d578063e9dfc89614610494578063ed23845b146103f4578063f08f4f6414610219578063f2fde38b1461018d5763fa4178dd1461012f575f80fd5b346101895760203660031901126101895760043561014b61187a565b5f8181526002602052604090205461016d906001600160a01b03161515611cc2565b5f526009602052600260405f20016101858154611bb0565b9055005b5f80fd5b34610189576020366003190112610189576101a661163b565b6101ae61187a565b6001600160a01b0390811690811561020157600754826bffffffffffffffffffffffff60a01b821617600755167f8be0079c531659141344cd1fd0a4f28419497f9722a3daafe3b4186f6b6457e05f80a3005b604051631e4fbdf760e01b81525f6004820152602490fd5b3461018957602080600319360112610189576004355f60c060405161023d816116f9565b60608152606085820152826040820152826060820152826080820152606060a08201520152805f526002825261028060018060a01b0360405f2054161515611cc2565b5f526009815260405f2060405190610297826116f9565b6102a0816117d9565b8252600181019283546102b281611bbe565b946102c0604051968761172f565b8186525f908152828120838088015b8484106103d6575092505050830193845260028201549060408401918252600383015492606085019384526004810154608086019081526006610314600584016117d9565b9260a0880193845201549460c08701958652610342604051978589525160e0868a01526101008901906115fd565b975194601f199485898b030160408a01528651808b52818b019180808d8460051b01019901925f905b8382106103ab578c808d6103a08e8e8e8e8e8e5160608901525160808801525160a087015251908583030160c08601526115fd565b905160e08301520390f35b909192939983808f838e8e6103c79360019703018752516115fd565b9c01920192019093929161036b565b60019182916103e4856117d9565b81520192019201919084906102cf565b346101895760403660031901126101895760043560243561041361187a565b5f82815260026020526040902054610435906001600160a01b03161515611cc2565b815f526009602052600460405f2001805491808301809311610480577f65c833f803429e04077c96bcd825aaa520ea7614e8b49ef8c6485927e16956dd9260209255604051908152a2005b634e487b7160e01b5f52601160045260245ffd5b34610189576040366003190112610189576004356001600160401b03602435818111610189576104c89036906004016116c9565b6104d184611a29565b336001600160a01b039091160361062757835f52602091600983526001928360405f2001916105008484611c2e565b5f92835281832090805b85851061053857887f1009d11766ca0abafafcdd4e48b742e3865ee5b8239e3c3d26005003ccee88b35f80a2005b8035601e1983360301811215610189578201908135898111610189578036038684011361018957889181610577889361057189546117a1565b89611beb565b5f601f82116001146105bc5783829186975f936105af575b5050505f19600383901b1c191690841b1786555b0193019401939161050a565b0101359050838f8061058f565b94601f19821695885f52845f20965f5b81811061060c5750918587989285899695106105f1575b50505050811b0186556105a3565b5f1960f88660031b161c19920101351690558e8085816105e3565b838301870135895596909701968d968b9692830192016105cc565b60405162461bcd60e51b815260206004820152600e60248201526d139bdd08185d5d1a1bdc9a5e995960921b6044820152606490fd5b346101895760403660031901126101895761067661163b565b61067e611651565b9060018060a01b038091165f52600560205260405f2091165f52602052602060ff60405f2054166040519015158152f35b34610189576020366003190112610189576004356106cb61187a565b5f818152600260205260409020546106ed906001600160a01b03161515611cc2565b5f526009602052600360405f20016101858154611bb0565b346101895760203660031901126101895760043561072281611a29565b505f52600660205261075b61073960405f206117d9565b5f60405161074681611714565b526040519182916020835260208301906115fd565b0390f35b34610189576020366003190112610189576004355f5260096020526107c460405f2061078a816117d9565b906107e16002820154600383015492600481015460066107ac600584016117d9565b9201549460405197889760c0895260c08901906115fd565b9360208801526040870152606086015284820360808601526115fd565b9060a08301520390f35b346101895760803660031901126101895761080461163b565b61080c611651565b90604435606435926001600160401b03841161018957366023850112156101895761084461085694369060248160040135910161176b565b926108508383836118a6565b33611a63565b005b346101895760403660031901126101895761087161163b565b60243590811515809203610189576001600160a01b03169081156108e057335f52600560205260405f20825f5260205260405f2060ff1981541660ff83161790556040519081527f17307eab39ab6107e8899845ad3d59bd9653f200f220920489ca2b5937696c3160203392a3005b604051630b61174360e31b815260048101839052602490fd5b34610189575f366003190112610189576040515f600180549061091b826117a1565b808552918181169081156109ae5750600114610956575b61075b846109428186038261172f565b6040519182916020835260208301906115fd565b5f81815292507fb10e2d527612073b26eecdfd717e6a320cf44b4afac2b0732d9fcbe2b7fa0cf65b82841061099657505050810160200161094282610932565b8054602085870181019190915290930192810161097e565b60ff191660208087019190915292151560051b850190920192506109429150839050610932565b34610189575f366003190112610189576007546040516001600160a01b039091168152602090f35b34610189576020366003190112610189576001600160a01b03610a1e61163b565b165f52600a602052602060405f2054604051908152f35b34610189575f36600319011261018957610a4d61187a565b600780546001600160a01b031981169091555f906001600160a01b03167f8be0079c531659141344cd1fd0a4f28419497f9722a3daafe3b4186f6b6457e08280a3005b34610189576020366003190112610189576001600160a01b03610ab161163b565b168015610ace575f526003602052602060405f2054604051908152f35b6040516322718ad960e21b81525f6004820152602490fd5b34610189576020366003190112610189576020610b04600435611a29565b6040516001600160a01b039091168152f35b3461018957610856610b2736611667565b9060405192610b3584611714565b5f84526108508383836118a6565b34610189576060366003190112610189576004356001600160401b03811161018957610b7390369060040161169c565b6024356001600160401b03811161018957610b929036906004016116c9565b9190926044356001600160401b03811161018957610bb490369060040161169c565b831561136f5780156113325760085494610bcd86611bb0565b600855604051610bdc81611714565b5f8152331561131a575f878152600260205260409020546001600160a01b0316801515908890826112e7575b335f52600360205260405f2060018154019055815f52600260205260405f20336bffffffffffffffffffffffff60a01b82541617905533907fddf252ad1be2c89b69c2b068fc378daa952ba7f163c4a11628f55a4df523b3ef5f80a46112cf57333b6111bd575b50610c7b36838561176b565b865f52600660205260405f20908051906001600160401b038211610fa7578190610caf82610ca986546117a1565b86611beb565b602090601f8311600114611155575f9261114a575b50508160011b915f199060031b1c19161790555b7ff8e1a15aba9398e019f0b49df1a4fde98ee17ae345cb5f6b5e2c27f5033e8ce76020604051888152a160405196610d0f886116f9565b610d1a36878761176b565b8852610d2582611bbe565b91610d33604051938461172f565b8083526020830191368260051b8201116101895780925b8260051b8201841061110b575050505090610d7e929160208801525f60408801525f60608801525f6080880152369161176b565b60a08501524260c0850152825f52600960205260405f209084518051906001600160401b038211610fa7578190610dbf82610db987546117a1565b87611beb565b602090601f83116001146110a3575f92611098575b50508160011b915f199060031b1c19161782555b6001820160208601516020815191610e008385611c2e565b01915f5260205f20915f905b828210610fbb575050505060408501516002830155606085015160038301556080850151600483015560a0850151908151926001600160401b038411610fa7576020968693610e6b86610e6260058601546117a1565b60058601611beb565b8890601f8711600114610f125791867f879a8a5f694b924c37e96310e9c5a18873fbde93eeefa5e1f3b7f1406fcca34d969760c0936006955f92610f07575b50508160011b915f199060031b1c19161760058501555b0151910155335f52600a86528260405f20558360405191878352818884015260408301375f604085830101526040813395601f80199101168101030190a3604051908152f35b015190508c80610eaa565b9590600584015f52895f20965f5b601f1984168110610f8d5750827f879a8a5f694b924c37e96310e9c5a18873fbde93eeefa5e1f3b7f1406fcca34d97986006959360019360c096601f19811610610f75575b505050811b016005850155610ec1565b01515f1960f88460031b161c191690558c8080610f65565b8282015189556001909801978a9750918b01918b01610f20565b634e487b7160e01b5f52604160045260245ffd5b80518051906001600160401b038211610fa757610fe282610fdc88546117a1565b88611beb565b602090601f831160011461102c5792826001949360209386955f92611021575b50505f19600383901b1c191690841b1787555b01940191019092610e0c565b015190508e80611002565b90865f5260205f20915f5b601f1985168110611080575083602093600196938796938794601f19811610611068575b505050811b018755611015565b01515f1960f88460031b161c191690558e808061105b565b91926020600181928685015181550194019201611037565b015190508780610dd4565b9250845f5260205f20905f935b601f19841685106110f0576001945083601f198116106110d8575b505050811b018255610de8565b01515f1960f88460031b161c191690558780806110cb565b818101518355602094850194600190930192909101906110b0565b6001600160401b038435116101895736601f8535840101121561018957602090819061113f3687358601803590850161176b565b815201930192610d4a565b015190508a80610cc4565b9250835f5260205f20905f935b601f19841685106111a2576001945083601f1981161061118a575b505050811b019055610cd8565b01515f1960f88460031b161c191690558a808061117d565b81810151835560209485019460019093019290910190611162565b604051602081806111f6630a85bd0160e11b958683523360048401525f60248401528c60448401526080606484015260848301906115fd565b03815f335af15f918161128a575b5061125d573d15611256573d61121981611750565b90611227604051928361172f565b81523d5f602083013e5b8051908161125157604051633250574960e11b8152336004820152602490fd5b602001fd5b6060611231565b6001600160e01b031916036112725787610c6f565b604051633250574960e11b8152336004820152602490fd5b9091506020813d6020116112c7575b816112a66020938361172f565b8101031261018957516001600160e01b03198116810361018957908a611204565b3d9150611299565b6040516339e3563760e11b81525f6004820152602490fd5b5f82815260046020526040902080546001600160a01b0319169055805f52600360205260405f205f198154019055610c08565b604051633250574960e11b81525f6004820152602490fd5b60405162461bcd60e51b815260206004820152601560248201527413595d1859185d1848155492481c995c5d5a5c9959605a1b6044820152606490fd5b60405162461bcd60e51b815260206004820152600d60248201526c13985b59481c995c5d5a5c9959609a1b6044820152606490fd5b34610189576108566113b536611667565b916118a6565b34610189576040366003190112610189576113d461163b565b6024356113e081611a29565b33151580611489575b80611460575b611448576001600160a01b039283169282918491167f8c5be1e5ebec7d5bd14f71427d1e84f3dd0314c0f7b2291e5b200ac8c7c3b9255f80a45f90815260046020526040902080546001600160a01b0319169091179055005b60405163a9fbf51f60e01b8152336004820152602490fd5b5060018060a01b0381165f52600560205260405f20335f5260205260ff60405f205416156113ef565b506001600160a01b0381163314156113e9565b34610189576020366003190112610189576004356114b981611a29565b505f526004602052602060018060a01b0360405f205416604051908152f35b34610189575f366003190112610189576040515f80546114f7816117a1565b808452906001908181169081156109ae57506001146115205761075b846109428186038261172f565b5f80805292507f290decd9548b62a8d60345a988386fc84ba6bc95484008f6362f93160ef3e5635b82841061156057505050810160200161094282610932565b80546020858701810191909152909301928101611548565b34610189576020366003190112610189576004359063ffffffff60e01b821680920361018957602091632483248360e11b81149081156115ba575b5015158152f35b6380ac58cd60e01b8114915081156115ec575b81156115db575b50836115b3565b6301ffc9a760e01b149050836115d4565b635b5e139f60e01b811491506115cd565b91908251928382525f5b848110611627575050825f602080949584010152601f8019910116010190565b602081830181015184830182015201611607565b600435906001600160a01b038216820361018957565b602435906001600160a01b038216820361018957565b6060906003190112610189576001600160a01b0390600435828116810361018957916024359081168103610189579060443590565b9181601f84011215610189578235916001600160401b038311610189576020838186019501011161018957565b9181601f84011215610189578235916001600160401b038311610189576020808501948460051b01011161018957565b60e081019081106001600160401b03821117610fa757604052565b602081019081106001600160401b03821117610fa757604052565b90601f801991011681019081106001600160401b03821117610fa757604052565b6001600160401b038111610fa757601f01601f191660200190565b92919261177782611750565b91611785604051938461172f565b829481845281830111610189578281602093845f960137010152565b90600182811c921680156117cf575b60208310146117bb57565b634e487b7160e01b5f52602260045260245ffd5b91607f16916117b0565b9060405191825f8254926117ec846117a1565b9081845260019485811690815f146118575750600114611817575b50506118159250038361172f565b565b909391505f52602090815f20935f915b81831061183f57505061181593508201015f80611807565b85548884018501529485019487945091830191611827565b91505061181594506020925060ff191682840152151560051b8201015f80611807565b6007546001600160a01b0316330361188e57565b60405163118cdaa760e01b8152336004820152602490fd5b6001600160a01b03918216929091831561131a575f92828452826020956002875260409684888820541696879133151580611993575b509060027fddf252ad1be2c89b69c2b068fc378daa952ba7f163c4a11628f55a4df523b3ef9284611962575b858352600381528b8320805460010190558683525289812080546001600160a01b0319168517905580a416928383036119415750505050565b6064945051926364283d7b60e01b8452600484015260248301526044820152fd5b5f87815260046020526040902080546001600160a01b0319169055848352600381528b832080545f19019055611908565b919394509150806119e8575b156119af5785929187915f6118dc565b8786886119cc576024915190637e27328960e01b82526004820152fd5b604491519063177e802f60e01b82523360048301526024820152fd5b503387148015611a0d575b8061199f575085825260048152338589842054161461199f565b5086825260058152878220338352815260ff88832054166119f3565b5f818152600260205260409020546001600160a01b0316908115611a4b575090565b60249060405190637e27328960e01b82526004820152fd5b909192833b611a74575b5050505050565b604051630a85bd0160e11b8082526001600160a01b039384166004830152938316602482015260448101919091526080606482015260209591909316939091908390611ac49060848301906115fd565b039285815f958187895af1849181611b6c575b50611b36575050503d5f14611b2e573d611af081611750565b90611afe604051928361172f565b81528091843d92013e5b80519283611b2957604051633250574960e11b815260048101849052602490fd5b019050fd5b506060611b08565b919450915063ffffffff60e01b1603611b5457505f80808080611a6d565b60249060405190633250574960e11b82526004820152fd5b9091508681813d8311611ba9575b611b84818361172f565b81010312611ba557516001600160e01b031981168103611ba557905f611ad7565b8480fd5b503d611b7a565b5f1981146104805760010190565b6001600160401b038111610fa75760051b60200190565b818110611be0575050565b5f8155600101611bd5565b9190601f8111611bfa57505050565b611815925f5260205f20906020601f840160051c83019310611c24575b601f0160051c0190611bd5565b9091508190611c17565b680100000000000000008211610fa757805491808255828110611c5057505050565b5f91825260209081832093840193015b838110611c6d5750505050565b8083611c7b600193546117a1565b80611c89575b505001611c60565b601f8082118514611ca057505081555b835f611c81565b611cb990848452868420920160051c8201858301611bd5565b81835555611c99565b15611cc957565b60405162461bcd60e51b8152602060048201526009602482015268139bdd08199bdd5b9960ba1b6044820152606490fdfea2646970667358221220cf47802fc55daf08e1e1abf33134050551a78f4196637ee959158a465ebb0ec164736f6c63430008140033","linkReferences":{}},"methodIdentifiers":{"addressToResearcherId(address)":"6998f0d8","approve(address,uint256)":"095ea7b3","balanceOf(address)":"70a08231","getApproved(uint256)":"081812fc","getProfile(uint256)":"f08f4f64","getResearcherId(address)":"7611e4c9","increaseReputation(uint256,uint256)":"ed23845b","incrementPapersRead(uint256)":"fa4178dd","incrementSessions(uint256)":"da9cf0de","isApprovedForAll(address,address)":"e985e9c5","name()":"06fdde03","owner()":"8da5cb5b","ownerOf(uint256)":"6352211e","profiles(uint256)":"c36fe3d6","registerResearcher(string,string[],string)":"3c00822a","renounceOwnership()":"715018a6","safeTransferFrom(address,address,uint256)":"42842e0e","safeTransferFrom(address,address,uint256,bytes)":"b88d4fde","setApprovalForAll(address,bool)":"a22cb465","supportsInterface(bytes4)":"01ffc9a7","symbol()":"95d89b41","tokenURI(uint256)":"c87b56dd","transferFrom(address,address,uint256)":"23b872dd","transferOwnership(address)":"f2fde38b","updateResearchInterests(uint256,string[])":"e9dfc896"},"id":36}