{"abi":[{"type":"constructor","inputs":[],"stateMutability":"nonpayable"},{"type":"function","name":"getPermission","inputs":[{"name":"from","type":"address","internalType":"address"},{"name":"to","type":"address","internalType":"address"}],"outputs":[{"name":"level","type":"uint256","internalType":"uint256"}],"stateMutability":"view"},{"type":"function","name":"grantShare","inputs":[{"name":"to","type":"address","internalType":"address"},{"name":"permissionLevel","type":"uint256","internalType":"uint256"}],"outputs":[{"name":"shareId","type":"uint256","internalType":"uint256"}],"stateMutability":"nonpayable"},{"type":"function","name":"owner","inputs":[],"outputs":[{"name":"","type":"address","internalType":"address"}],"stateMutability":"view"},{"type":"function","name":"renounceOwnership","inputs":[],"outputs":[],"stateMutability":"nonpayable"},{"type":"function","name":"revokeShare","inputs":[{"name":"targetResearcher","type":"address","internalType":"address"}],"outputs":[],"stateMutability":"nonpayable"},{"type":"function","name":"shareIndex","inputs":[{"name":"","type":"address","internalType":"address"},{"name":"","type":"address","internalType":"address"}],"outputs":[{"name":"","type":"uint256","internalType":"uint256"}],"stateMutability":"view"},{"type":"function","name":"shares","inputs":[{"name":"","type":"uint256","internalType":"uint256"}],"outputs":[{"name":"fromResearcher","type":"address","internalType":"address"},{"name":"toResearcher","type":"address","internalType":"address"},{"name":"permissionLevel","type":"uint256","internalType":"uint256"},{"name":"active","type":"bool","internalType":"bool"},{"name":"grantedAt","type":"uint256","internalType":"uint256"}],"stateMutability":"view"},{"type":"function","name":"transferOwnership","inputs":[{"name":"newOwner","type":"address","internalType":"address"}],"outputs":[],"stateMutability":"nonpayable"},{"type":"event","name":"OwnershipTransferred","inputs":[{"name":"previousOwner","type":"address","indexed":true,"internalType":"address"},{"name":"newOwner","type":"address","indexed":true,"internalType":"address"}],"anonymous":false},{"type":"event","name":"ShareGranted","inputs":[{"name":"shareId","type":"uint256","indexed":true,"internalType":"uint256"},{"name":"from","type":"address","indexed":true,"internalType":"address"},{"name":"to","type":"address","indexed":true,"internalType":"address"},{"name":"level","type":"uint256","indexed":false,"internalType":"uint256"}],"anonymous":false},{"type":"event","name":"ShareRevoked","inputs":[{"name":"shareId","type":"uint256","indexed":true,"internalType":"uint256"}],"anonymous":false},{"type":"error","name":"OwnableInvalidOwner","inputs":[{"name":"owner","type":"address","internalType":"address"}]},{"type":"error","name":"OwnableUnauthorizedAccount","inputs":[{"name":"account","type":"address","internalType":"address"}]}],"bytecode":{"object":"0x6080806040523461007c573315610067575f8054336001600160a01b03198216811783556040519290916001600160a01b0316907f8be0079c531659141344cd1fd0a4f28419497f9722a3daafe3b4186f6b6457e09080a36001805561066e90816100818239f35b631e4fbdf760e01b81525f6004820152602490fd5b5f80fdfe60806040818152600480361015610014575f80fd5b5f92833560e01c908163200280491461047b5750806339c013921461043257806357a858fc146103d1578063715018a6146103745780638da5cb5b1461034c578063910185dd14610317578063bc2180ee146101015763f2fde38b14610078575f80fd5b346100fd5760203660031901126100fd5761009161057d565b9061009a6105ad565b6001600160a01b039182169283156100e757505082546001600160a01b0319811683178455167f8be0079c531659141344cd1fd0a4f28419497f9722a3daafe3b4186f6b6457e08380a380f35b51631e4fbdf760e01b8152908101849052602490fd5b8280fd5b5091903461031357806003193601126103135761011c61057d565b6001600160a01b039290831690602435903383146102d757600180831015806102cc575b1561028957338252602096600388528583208584528852858320548061026f575b508154965f19881461025c57828801835586519260a0840184811067ffffffffffffffff821117610249578894928a9694928c9287523385528285018a8152878601918a83526060870193818552600260808901964288528c8b5252808a8a20985116916bffffffffffffffffffffffff60a01b92838a5416178955880192511690825416179055516002850155600384019051151560ff801983541691161790555191015533815260038852818120858252885220558251908152837f4dd53e08ef9484ed3b0f96dd528ae5a3c0d27c69472edc0eb2f5b49d1e31dd0e863393a451908152f35b634e487b7160e01b865260418452602486fd5b634e487b7160e01b845260118252602484fd5b835260028852858320600301805460ff191690555f610161565b845162461bcd60e51b8152602081890152601860248201527f496e76616c6964207065726d697373696f6e206c6576656c00000000000000006044820152606490fd5b506003831115610140565b835162461bcd60e51b8152602081880152601660248201527521b0b73737ba1039b430b932903bb4ba341039b2b63360511b6044820152606490fd5b5080fd5b50503461031357806003193601126103135760209061034561033761057d565b61033f610597565b906105d8565b9051908152f35b505034610313578160031936011261031357905490516001600160a01b039091168152602090f35b83346103ce57806003193601126103ce5761038d6105ad565b80546001600160a01b03198116825581906001600160a01b03167f8be0079c531659141344cd1fd0a4f28419497f9722a3daafe3b4186f6b6457e08280a380f35b80fd5b5090346100fd5760203660031901126100fd578060a09383358152600260205220600180851b039283825416936001830154169260028301549160ff6003850154169301549381519586526020860152840152151560608301526080820152f35b5050346103135780600319360112610313578060209261045061057d565b610458610597565b6001600160a01b0391821683526003865283832091168252845220549051908152f35b929190503461057957602090816003193601126105755761049a61057d565b338652600383528386206001600160a01b03909116865282528285205493841561054457508385526002825260ff6003848720015416156105115750828452600290528220600301805460ff191690557f8c5a6faf8dae8a30a56c22fbcb6e105d3d45c9abfbf62015d17366f59a2ffda48280a280f35b915162461bcd60e51b815291820152600f60248201526e105b1c9958591e481c995d9bdad959608a1b6044820152606490fd5b8260649262461bcd60e51b8352820152600f60248201526e4e6f2073686172652065786973747360881b6044820152fd5b8480fd5b8380fd5b600435906001600160a01b038216820361059357565b5f80fd5b602435906001600160a01b038216820361059357565b5f546001600160a01b031633036105c057565b60405163118cdaa760e01b8152336004820152602490fd5b9060018060a01b03805f931683526003602052604083209116825260205260408120548015801561061e575b61061a5781604091600293528260205220015490565b5090565b50808252600260205260ff6003604084200154161561060456fea26469706673582212200edd7fbd545aa5825517439f407a6f69720c1d294bf3c6a175112752c1a7e70f64736f6c63430008140033","linkReferences":{}},"methodIdentifiers":{"getPermission(address,address)":"910185dd","grantShare(address,uint256)":"bc2180ee","owner()":"8da5cb5b","renounceOwnership()":"715018a6","revokeShare(address)":"20028049","shareIndex(address,address)":"39c01392","shares(uint256)":"57a858fc","transferOwnership(address)":"f2fde38b"},"id":35}